:040000009AEF0AF079
:1010000000002350D8B407EF08F009EF08F027EFED
:1010100008F02350D96EDA6ADF30E832E832070B85
:10102000246E080E246017EF08F019EF08F027EF80
:1010300008F02350D96EDA6ADF50070B246E040ED5
:10104000246425EF08F027EF08F07CEF08F092EF1A
:1010500008F02350D96EDA6ADF30E832E832070B45
:10106000246E010E256E242A38EF08F0D89025361C
:10107000242E36EF08F02350D96EDA6ADF50070BC2
:10108000020DF350150FD96EDA6ADECF26F0DDCFF0
:1010900027F026C0D9FF27C0DAFF2550DF1227EF3F
:1010A00008F02350D96EDA6ADF30E832E832070BF5
:1010B000246E010E256E242A60EF08F0D8902536A4
:1010C000242E5EEF08F02550FF0A266E2350D96EBD
:1010D000DA6ADF50070B020DF350150FD96EDA6A8A
:1010E000DECF27F0DDCF28F027C0D9FF28C0DAFFF8
:1010F0002650DF1627EF08F02350D96EDA6ADFBCDE
:1011000084EF08F087EF08F0010E88EF08F0000E7A
:10111000000AD8B451EF08F0010AD8B429EF08F05A
:1011200027EF08F0010E12002350D8B49AEF08F010
:101130009CEF08F0BAEF08F02350D96EDA6ADF307E
:10114000E832E832070B256E080E2560AAEF08F09A
:10115000ACEF08F0BAEF08F02350D96EDA6ADF502E
:10116000070B256E040E2564B8EF08F0BAEF08F0FF
:101170000FEF09F024EF09F02350D96EDA6ADF305F
:10118000E832E832070B256E010E266E252ACBEFDA
:1011900008F0D8902636252EC9EF08F02650FF0A11
:1011A000276E2350D96EDA6ADF50070B020DF35019
:1011B000010FD96EDA6ADECF28F0DDCF29F028C022
:1011C000D9FF29C0DAFF2750DF16BAEF08F0235005
:1011D000D96EDA6ADF30E832E832070B256E010E8D
:1011E000266E252AF6EF08F0D8902636252EF4EF45
:1011F00008F02350D96EDA6ADF50070B020DF35066
:10120000010FD96EDA6ADECF27F0DDCF28F027C0D4
:10121000D9FF28C0DAFF2650DF12BAEF08F02450B9
:10122000256E266A2650000AD8B419EF09F0BAEFE5
:1012300008F02550000AD8B4BCEF08F0010AD8B471
:10124000E7EF08F0BAEF08F0010E12002350D96E54
:10125000DA6ADF9C2550D96EDA6A2350E16EE26AC1
:10126000E79EDFAE35EF09F0E78E2550D96EDA6ADA
:10127000DF38070B266E2350D96EDA6A26462646DB
:101280002646DF502618C70B2618DF6E2550D96E6C
:10129000DA6ADF500F0B266E2350D96EDA6ADF5000
:1012A0002618F80B2618DF6E2450D96EDA6ADF9CF8
:1012B0002550D96EDA6A010ED9262450E16EE26A11
:1012C000E79EDFAE65EF09F0E78E2550D96EDA6A4A
:1012D000010ED926DF38070B266E2450D96EDA6A44
:1012E000264626462646DF502618C70B2618DF6EF0
:1012F0002550D96EDA6A010ED926DF500F0B266E03
:101300002450D96EDA6ADF502618F80B2618DF6EE3
:101310001200C0EC0AF0210E2A6E3BEC0AF01F0E00
:101320002A6E3BEC0AF00B0E326E260E316E5E0E0C
:10133000E82EFED7312EFCD7322EFAD7210E2A6E98
:101340001AEC0AF01F0E2A6E1AEC0AF0030E326E27
:10135000080E316E770EE82EFED7312EFCD7322ED6
:10136000FAD70000210E2A6E5CEC0AF01F0E2A6EDE
:101370005CEC0AF00B0E326E260E316E5E0EE82E1D
:10138000FED7312EFCD7322EFAD7210E2A6E1AEC58
:101390000AF01F0E2A6E1AEC0AF0030E326E080EC7
:1013A000316E770EE82EFED7312EFCD7322EFAD7CB
:1013B00000008BEF09F000EF00F02A50D8B4E3EF03
:1013C00009F0E5EF09F003EF0AF02A50D96EDA6A66
:1013D000DF30E832E832070B2B6E080E2B60F3EF9C
:1013E00009F0F5EF09F003EF0AF02A50D96EDA6A36
:1013F000DF50070B2B6E040E2B6401EF0AF003EF96
:101400000AF007EF0AF0010E2C6E18EF0AF02AC05E
:1014100023F001EC08F02C6E2AC023F02A50D96E7C
:10142000DA6A000EDFBE010E246E94EC08F02C1672
:101430002C5012002A50D8A420EF0AF022EF0AF014
:1014400024EF0AF03AEF0AF02C0E236E2D0E246ED4
:101450002AC025F026EC09F02C0E236E000E246E17
:1014600094EC08F02B6E2D0E236E000E246E94EC7F
:1014700008F02B1612002A50D8A441EF0AF043EFCF
:101480000AF045EF0AF05BEF0AF02C0E236E2D0EEA
:10149000246E2AC025F026EC09F02C0E236E010ED6
:1014A000246E94EC08F02B6E2D0E236E000E246E2D
:1014B00094EC08F02B1612002A50D8A462EF0AF020
:1014C00064EF0AF066EF0AF07CEF0AF02C0E236E50
:1014D0002D0E246E2AC025F026EC09F02C0E236E6A
:1014E000000E246E94EC08F02B6E2D0E236E010E70
:1014F000246E94EC08F02B1612002D50D8A483EF24
:101500000AF085EF0AF087EF0AF099EF0AF02F0E44
:10151000236E300E246E2DC025F026EC09F02F0E20
:101520002A6EDDEC09F02E6E300E2A6EDDEC09F02D
:101530002E1612005E0EF66E150EF76E000EF86E89
:1015400000EE01F010EE22F00900F5CFEEFFE550BD
:10155000E150FAE1000EF86E000189EF09F0890F01
:101560008A0F8B0F8C0F8D0F800F810F820F830FCF
:10157000840F920F930F940F950F960F2232021241
:10158000210E2D6E7DEC0AF01F0E2D6E7DEC0AF003
:02159000120047
:00000001FF
